S00E000041444354657374206D6F7419
S1130000D800FFFF00000000000000000000000016
S113001000000000000000000000000000000000DC
S1130020000000000000000000000000500100007B
S1130030000000004B010000000000000000000070
S113004000000000000000000000000000000000AC
S1130050000000000000000000000000000000009C
S1130060000000000000000000000000000000008C
S1130070000000000000000000000000000000007C
S11300820000000000000000D007000000409C4572
S11300920000000000000000004028348D855596C1
S10B00A2C673737F05400000E2
S10700C0E9FFF884D4
S10D00C4000000000000000000002E
S10D00CEFFFFFFFFFFFFFFFFFFFF2E
S11300D8CBF820FE30C2B5FC7D0100FC2B080036AD
S11300E800B5309AB5EF04CC0000A747DFF93620F5
S11300F8FE3020FEEF04CC0000A747DFF9410032B0
S11301082800EF08B311498200489AB5F643DFF492
S11301184100320000EF08B3114980004820FEF680
S113012843DFF4320000EF0FB3B3410011798000CC
S1130138CEFC00C361CAC2F643DFEDFCC10100F680
S1130148EFFED7E59AB561FCC1E602AAB5BFAAB528
S1130158F6081FACB5081FADB5BFACB5F6081FAEA1
S1130168B5081FAFB5BFAEB5F661D8A102B0B5BF2B
S1080178B0B5C061FCFC
S113017D16C80300AEF82761D339315E12F643DD9C
S113018D27BBBC02BC04BC06BC08BC0ABC0CBC0E20
S113019DBC10BC12BC14BC16BC18BC1ABC1CBC1EB6
S11301AD3704200037B3EFD6AEF847DD06F6BBA70C
S11301BDA7EFF5D7FE1200FE8E04F6C1C1C130E8DB
S11301CD03C1FE1F051008EFEE341600717BFACA49
S11301DD0000CA0100CA0200CA0300CA0400CA050D
S11301ED00CA0600CA0700CA0800FC610800FC30FA
S11301FD0800FC640800FCD50800F57800717AFA53
S113020DEC4209002018F6BF86B5BF8AB55014BF5D
S113021D88B5300AB5FEA305307A44C1F6C1F58C14
S113022DB5F58DB530A043BF90B530B8FEBF8EB5D2
S113023D301742BF94B530E17ABF92B530D93FBF84
S113024D98B5309A99BF96B5300A44BF34B530008D
S113025D40BF32B55144BF58B5F1BF56B5DBA8B553
S113026DAFA6B5FCFC0A0014100430803AC1F6C1E7
S113027D15FC2C0C00B80413B80A100430A043C1AB
S113028D30B8FEC1A804FC2C0C00B80813B8061035
S113029D04301742C130E17AC1A80A12A804FC2C1B
S11302AD0C00BF66B513BF68B5A806BF48B5A8084E
S11302BDBF46B51004AF86B54288B561C8EE0E02CF
S11302CDAEF8041000FEF304A810220AB514A81207
S11302DD083F0CB5083F0DB516A814083F0EB50818
S11302ED3F0FB5B800A81661D8B12210B512174248
S11302FDA4B51561F842A2B5E13C0075A80003E16F
S113030D61F861D87565D161E8EEC201A28AB5AF15
S113031D30B5BF2CB5AF2EB5BF2AB55119FE670444
S113032DF7FCE50C00BF4AB513BF4CB55118FE568A
S113033D04F7FCE50C00B806BF4EB513B804BF5066
S113034DB5AF34B5C1AF32B5C1DB4CB513B812AFCF
S113035D4AB5B810FCBE0900B80C13B80E1004C38E
S113036DA80AC1FC2C0C00B80613B8041004A80A82
S113037DBF30B5A808BF2EB5AF58B5C1AF56B5C17E
S113038DA80812A80AFCBE0900B80A13B80810047C
S113039DDB40B5A800C1A804C1A808BF54B5A80A7C
S11303ADBF52B5A804BF3CB5A806BF3AB5AF3EB51C
S11303BDFCC60900B80613B8041004A80412C3A897
S11303CD08C1FC2C0C0014100413BF5CB5C3C5A8E4
S11303DD04BF40B5A806BF3EB515BF5AB5DB60B521
S11303EDAF5EB5FCC6090014131004BF60B515BF8C
S11303FD5EB5AF2CB5B802C1AF2AB5B802C1A80E0F
S113040D12A80CFCBE09001004C3C1DB98B5AF964D
S113041DB5FC2C0C001004C3C1A80612A804FCC61C
S113042D0900B80413B8061004A804C1A808C1A88B
S113043D04FC2C0C0014100413BF70B5C3C5A8061E
S113044DBF38B5A804BF36B515BF6EB5DB6CB5AFF7
S113045D6AB5FCC6090014131004BF6CB515BF6A48
S113046DB58F8DB598039F8CB5AF9EB5F7FCE50C94
S113047D00B80013B804C3A802C1A81212A810FC36
S113048DCE0C0098061004A804C1A802C1A812122B
S113049DA810FCCB0B001004708802D1E161F8F1B7
S11304ADD0E061F8F06160E161E8F1739F8DB5AF63
S11304BD8AB5440100DF06639F8CB59803880370E9
S11304CD63614061F8EEEDFDA286B5EEE7FDAF8AFE
S11304DDB5F7FCE50C00C3C1DB40B5AF3EB5FCFC84
S11304ED0A00141004AF48B5B802AF46B5B80015EC
S11304FDFC210F00C3C1A80612A804FC2C0C001487
S113050D131004BF44B515BF42B5AF8AB5F7FCE56A
S113051D0C00C3C1DB60B5AF5EB5FCFC0A00141062
S113052D04AF68B5B802AF66B5B80015FC210F006D
S113053DC3C1A80612A804FC2C0C00B80E13B80CE9
S113054D1004DB48B5A808BF64B5A80ABF62B5AFEF
S113055D68B5C1AF66B5C1AF46B5FC2C0C0014101F
S113056D04AF6CB5C1AF6AB5C115FC2C0C00B8064F
S113057D13B8041004AF8AB5F7FCE50C00C3C1A889
S113058D0412A806FCFC0A00B80A13B8081004DB10
S113059D44B5A808C1A80CC1A808BF74B5A80ABF62
S11305AD72B5AF42B5FC2C0C00B80413B806100498
S11305BDC3A802C1A80812A80AFCFC0A00BF7AB598
S11305CD13BF7CB5A806BF78B5A804BF76B51004D3
S11305DD3012B5FEE501AF18B5C1AF16B5C1AF14F4
S11305EDB5C1AF12B5C1FCD90C00141008305B4A6B
S11305FDC13000BAC115FCFC0A00B80613B80410CA
S113060D04DB78B5A800BF80B5A802BF7EB5AF7C6A
S113061DB5C1AF7AB5C1AF76B5FC2C0C001004147E
S113062DA800C1A804C115FC2C0C00BF82B513BFD2
S113063D84B5F6BF40B5BF3EB5BF60B5BF5EB5BFAF
S113064D6CB5BF6AB5101CD7200CF500B5300AB5D2
S113065DFE6801D500B561E8EE83005119FE27014E
S113066DBF9EB5F6C1C1C15005C1FE77001008305B
S113067D0DFE029EB5446D0061D8E500B5AEF804DB
S113068D0400FE3601A804220AB512A806083F0C80
S113069DB5083F0DB516A808083F0EB5083F0FB5B0
S11306ADB802A80A61D8B12210B514440000A802FA
S11306BD61F8440100F11C0098001742A4B51361C0
S11306CDF842A2B5E361F3F3A8020561F8DE0388ED
S11306DD0073D361E8EE7BFFE500B5EE75FFFE23F5
S11306EDFB100CD72004F6BF20B5BF1EB5BF1CB53B
S11306FDBF1AB5BF28B5BF26B5BF24B5BF22B530C7
S113070D1AB5FEB600EF5CAF22B5221AB514AF24AC
S113071DB5083F1CB5083F1DB512AF26B5083F1EE1
S113072DB5083F1FB5B802AF28B561D8B12220B5C1
S113073DB800A80A3343A808121561F843E13C0038
S113074D76A80E14A80045A80C12A80261F843E17E
S113075D3C0077A80045A80261F843DD0267766680
S113076DD1DF083022B5FE5200EF9CF6BF20B5BF95
S113077D1EB5BF1CB5BF1AB5BF28B5BF26B5BF245E
S113078DB5BF22B51004D7C79800FCC60800FCB24B
S113079D080088009E31409AB501DF1AF59AB530EC
S11307AD9CB5FCCE0800F6C1C1C15002C1FE34FF98
S11307BD1008FCBC0800AF9CB5C2D7200414AFB020
S11307CDB512BF08B5AFAEB516BF06B5AFACB5B86B
S11307DD02BF04B5AFAAB5B800BF02B513BA061768
S11307EDBA04A802BA02A800B91004D7341600CA74
S11307FD0000CA0100CA0200CA0300CA0400CA05E7
S113080D00CA0600CA0700CA0800FC610800FC30D3
S113081D0800FC640800FCD50800F57800D7717B4E
S113082DFAEFC936C40234C402718215A116CEA0E2
S113083D00717AA1714BA4CA030171A336C402716C
S113084D6AA1716BA4710BA1CA04808A046C429ACB
S113085D0471A3D78EA8D730100004E0001634100D
S113086D0071D2CE3000710AE7710BE3710AEF719A
S113087D0AEB51186F23FF9E238A5C71DA9A5C513F
S113088D206F2CFF9E2C8A5C718A9A5CE16F2CFF81
S113089D9E2CCE3000CE3200CA0000CA01FFCA021F
S11308AD00CE3118D7710BE3710BE7717A30D77124
S11308BD7B30710AE7710BE3D7710A30D7710B30B6
S11308CDD714AD1E316EB9D734F00036F000F67181
S11308DD82BAC630FF0ABAC4F6BF2A02714AE6715B
S11308ED4BE2715AE6715BE2713AE7713BE3716A6F
S11308FDE6716BE2717AE6717BE2714AE7714BE363
S113090D717AE7717BE3710AD4710BD0711AD471CA
S113091D1BD0712AD4712BD0714AEE714AEABAA058
S113092DC918FF7CAAC8085CFE08BAC8AACA085C24
S113093DFE08BACAD734B201714BE2714BE6A9086D
S113094D6C0108B9D734B401A9086C0108B9714A0E
S108095DE6714BE2D736
S1130962F7F6D7C031730AA8040514880661121574
S1130972D7D0DFECA8043525148806613215D76078
S1130982616D616CC0DF06317A6158DD16F6B11211
S1130992D767D1DDCE86D0DF63A8066168DF5D61EB
S11309A2E8C2C015D74C19DEF8A8080876880AB838
S11309B208C80A0051086123DD6AEF4D1488077CD8
S11309C280980715148807617BF0C1130116A808E3
S11309D20147DF08A8064561F8C8000161D30AA8E7
S11309E20635B806A80833B80813014CFFDD907722
S11309F2A80801D176DD9AE1317D980867612E5607
S1130A0200DD22C3734C08DE9C880A311A980AA8B6
S1130A120861FB0861FB08B8086661FB61D8718A4A
S1130A227693DFE5C2C00151806162615BC1DC374C
S1130A32A806051488086112DE1D62311A72156156
S1130A42FB0861FB08146661FB61D8718A768787AB
S1130A5261F8EC890D0097130167311E121735EC0A
S1130A62A10D00C0F7F6D7D0DFF9F1612E76880622
S1130A7261348807613588086132623173D9176439
S1130A8233650897DD07311C61EE3175F608740190
S1130A9267311E3308618CECA10D00C0F6B112D788
S1130AA216A8066168616EDFF2130181DDED61F85B
S1130AB2C0C2F2F6D716A8066168616EDD17C38854
S1130AC20A72A808FC910D00B80813B80AC267316B
S1130AD28FC1EF3FC0130108616D616C61E8E16190
S1130AE208DDB8EC890D0060616D616CDDC215FC36
S1130AF2910D001467318F16EF27148807617B5C10
S1130B0280C1A8080181DD9891DDAA76E1311EB881
S1130B120877C7130181DDBC91DDCC76E1311E1269
S1130B227717C62716A8063525C1880A6132C0DEA2
S1130B320B0161FE05C1880A6112C0B7C7318C720C
S1130B42318D16A80A37CEFB0B00C166736572A8F5
S1130B520C16A80A35318DCEFB0B00C16673657283
S1130B62A80E16A80C35318DCEFB0B00C26235617E
S1130B7268616F6166C2C0047E00317324A144FFC0
S1130B820061C8EC890D006208311E121561FB0870
S1130B9261FB08DE0604010061D8A314C061631579
S1130BA2D744E8FF61D8EE08FF90660835E3333195
S1130BB21E3361FB0861FB08618C61FB61D8718A99
S1130BC2618C85DFE9ECA10D00C3C1FC6D0D00D180
S1130BD2DD0AFC350D0061E3E161F3F11004D7C0D5
S1130BE2F6B112D716A8066168616EDFF213010826
S1130BF2616D616C61E8E16108DDE4EC890D00136B
S1130C0201D1DD0CA80635B806A80833B808EF24CC
S1130C12C2F2F6D760616D616CDDF515FC910D00D1
S1130C221467318F57000716EF29148807617B5C1C
S1130C3280C1A8080181DDAC91DDC476E1311EB822
S1130C4208130181DDA791DDCB6106F161DC77E157
S1130C52311E12C713880AD616A808CEFB013533F3
S1130C620716C3A80CCEFB01051462611663611753
S1130C72C2A808CEFB0133051461D8A7F64361E884
S1130C82E161641712C631730715011461FE61D85C
S1130C92A717248000317317A144FF0061C8EC89AF
S1130CA20D0063610108311E336508ECA10D004497
S1130CB2E8FF61D8EE59FF3533311E3361FB086119
S1130CC2FB61D8718A0884DFEF35EFD6C3C1FC6DAE
S1130CD20D0010047C01D75400AEF804040016EC95
S1130CE2B40D005400EC110E00C1A810C1A810C12B
S1130CF2A80C14A80A12A804FC760E00A81012A8C4
S1130D020EFC5B0E00FC230D00A818B802A816B84E
S1130D1200A80C12A80AFC5B0E00FC230D001006AE
S1130D22D714A80816AC0405BC04AC0661D8A10308
S1130D32BC06D7FBF8FFAC0E1271FCAC0671FFDCEB
S1130D421161490EAC0461F861490C8C0761E871C8
S1130D52FFD70161686E056E04311C616B616A6EB6
S1130D620D6E0CD18C0761E871FCD7311C83E3DD75
S1130D720ED3DD09A80E0112A80C83DD02E1D761AE
S1130D8268616ADDECF1D732807FC06163F6D757C0
S1130D92013308311C61DC973175F8318E33D71673
S1130DA2311E641C7FDE06A7F64761F8A3C06163A7
S1130DB217D78C076E066E056E04726E036E026E92
S1130DC2016DDF03F7F6D7FCD30E00517F61058B6B
S1130DD26E016E026E03DD068C046C019C048C04AD
S1130DE24C80DC17DF068C05718CDE0F615905DF40
S1130DF20AAC06040100BC0661D8858C0572AC06F7
S1130E02618C718C60731561FB0871F90833D70327
S1130E1261C8DD442333559E440000DF065110614E
S1130E2225F13331730A9501311C61D8A13175F66C
S1130E32618A4C80618ADC11DF0633718C33DE09EE
S1130E4283DF0604010061D885618C718C630835E7
S1130E5261FB0871F9081215D7C1A806CEFB01146B
S1130E62A80012A808CEFB010514C2A804CEFB01F7
S1130E72330533D7C5C3C1A80AFC1D0F00C6BB1373
S1130E82BC02C7A80412A80AFC1D0F00C66109020D
S1130E92BC0261D8A313BC04C7A80212A80CFC1D8F
S1130EA20F00C6610902BC0261D8A3AC0403BC04EE
S1130EB2F661EEBC06C7A80412A80CFC1D0F00C6FE
S1130EC2610904BC0461D8A313610906BC061004B9
S1130ED2D7553FD2DF0FAC02BC06ABBC04F6BC0252
S1130EE2BB512061258C066E07DF11AC04BC06AC35
S1130EF202BC04ABBC02F6BB511061258C073173F2
S1130F021995AB01BBAC0261EEBC02AC0461EEBC50
S1120F1204AC0661EEBC063175E7D7CEFB01D700
S1130F21C1200C14C3130480FF44007FDC68135CEC
S1130F317F05DF06DC04A80EEF5913085C8008F76F
S1130F4143DF32A80E12A800319D319E0361F8DE01
S1130F512430804BC1F6C1A80412A812FC2C0C0049
S1130F611004FEBBFF14308039C1F6C115FC2C0CF2
S1130F71001004EF1EA80044807FA80EDF02F7438F
S1130F81DF09E6A1BFC0B5C2C3EFABE6BFC0B5324E
S1130F91C0FFB11010D715318E1413318D056C803B
S1130FA1B806A800317EF1140482FFB80AF661C8BC
S1130FB1B1B80CA80E318DB808880A310521A806EC
S1130FC131FD12A808311E03B808150483FF14F774
S1130FD161C8B3A806311EB80615B80A13B80C20A7
S1130FE108F6B80CC1C1A81222B2B514FE2B01B87F
S1130FF10E16C7C2AFB4B5B81ACEFB02B80CC5C23F
S1131001A81ACEFB01A80C03C7C216AFB6B5FE17CA
S113101101AFB8B5FE1101AFBAB5FE0B01AFBCB556
S11310212716CEFB02B81AFEF500B80CC5C217CEBE
S1131031FB01A81A14A80C050302BEB514F661D865
S1131041A1161531FE1217010316C7C21501B80EF8
S1131051CEFB0214A80E1217CEFB02B81AA80E1268
S1131061CEFB01B80CA81A050314A81412A80C236A
S1131071B81AA8121215FEA20023B80CA81A315EE0
S113108112A80E14A80C31BD0312A81A31BDCEFB4F
S11310910B00B80C31CE14314C130516A80C1231C7
S11310A14CF61423B80CA80EFE700027B81A12C30C
S11310B1A80E086C805C8008B810C1C5C5C3C1AE58
S11310C1F8041000FCEB0C001010C0C0C6C4A80C3E
S11310D11231FCA80A311E03B800A806121543A850
S11310E108121761F843DE03E6B804A80E318D1225
S11310F1A80E318E16A802318E0312A804031461BE
S1131101D8A7A800047E0012317C175C01085C7F1B
S1131111616A08616B1215EE79FEF661D8B1D7C523
S1131121C2FEF6FFCEFB02D72716CEFB02B81EFE87
S1131131EDFFB810C5C217CEFB01A81E16A81007F3
S10911410316A81212D7E8
S21403FE00FFFFFFFFFFFFFFFFFFFFFFFFFFFFFFFFFA
S21403FE10FFFFFFFFFFFFFFFFFFFFFFFFFFFFFFFFEA
S21403FE20FFFFFFFFFFFFFFFFFFFFFFFFFFFFFFFFDA
S21403FE30FFFFFFFFFFFFFFFFFFFFFFFFFFFFFFFFCA
S21403FE40FFFFFFFFFFFFFFFFFFFFFFFFFFFFFFFFBA
S21403FE50FFFFFFFFFFFFFFFFFFFFFFFFFFFFFFFFAA
S21403FE60FFFFFFFFFFFFFFFFFFFFFFFFFFFFFFFF9A
S21403FE70FFFFFFFFFFFFFFFFFFFFFFFFFFFFFFFF8A
S21403FE80FFFFFFFFFFFFFFFFFFFFFFFFFFFFFFFF7A
S21403FE90FFFFFFFFFFFFFFFFFFFFFFFFFFFFFFFF6A
S21403FEA0FFFFFFFFFFFFFFFFFFFFFFFFFFFFFFFF5A
S21403FEB0FFFFFFFFFFFFFFFFFFFFFFFFFFFFFFFF4A
S21403FEC0FFFFFFFFFFFFFFFFFFFFFFFFFFFFFFFF3A
S21403FED0FFFFFFFFFFFFFFFFFFFFFFFFFFFFFFFF2A
S21403FEE0FFFFFFFFFFFFFFFFFFFFFFFFFFFFFFFF1A
S21403FEF0FFFFFFFFFFFFFFFFFFFFFFFFFFFFFFFF0A
S21403FF00FFFFFFFFFFFFFFFFFFFFFFFFFFFFFFFFF9
S21403FF10FFFFFFFFFFFFFFFFFFFFFFFFFFFFFFFFE9
S21403FF20FFFFFFFFFFFFFFFFFFFFFFFFFFFFFFFFD9
S21403FF30FFFFFFFFFFFFFFFFFFFFFFFFFFFFFFFFC9
S21403FF40FFFFFFFFFFFFFFFFFFFFFFFFFFFFFFFFB9
S21403FF50FFFFFFFFFFFFFFFFFFFFFFFFFFFFFFFFA9
S21403FF60FFFFFFFFFFFFFFFFFFFFFFFFFFFFFFFF99
S21403FF70FFFFFFFFFFFFFFFFFFFFFFFFFFFFFFFF89
S21403FF80FFFFFFFFFFFFFFFFFFFFFFFFFFFFFFFF79
S21403FF90FFFFFFFFFFFFFFFFFFFFFFFFFFFFFFFF69
S21403FFA0FFFFFFFFFFFFFFFFFFFFFFFFFFFFFFFF59
S21403FFB0FFFFFFFFFFFFFFFFFFFFFFFFFFFFFFFF49
S21403FFC0FFFFFFFFFFFFFFFFFFFFFFFFFFFFFFFF39
S21403FFD0FFFFFFFFFFFFFFFFFFFFFFFFFFFFFFFF29
S21403FFE0FFFFFFFFFFFFFFFFFFFFFFFFFFFFFFFF19
S21403FFF0FFFFFFFFFFFFFFFFFFFFFFFFFFFFFFFF09
S9030000FC
