S00E0000414443546573745F6D6F74DA
S1130000D800FFFF00000000000000000000000016
S113001000000000000000000000000000000000DC
S1130020000000000000000000000000500100007B
S1130030000000004B010000000000000000000070
S113004000000000000000000000000000000000AC
S1130050000000000000000000000000000000009C
S1130060000000000000000000000000000000008C
S1130070000000000000000000000000000000007C
S11300820000000000000000D007000000409C4572
S11300920000000000000000004028348D855596C1
S10B00A2C673737F05400000E2
S10700C0E9FFF884D4
S10D00C4000000000000000000002E
S10D00CEFFFFFFFFFFFFFFFFFFFF2E
S11300D8CBF820FE30C2B5FC7D0100FCCD0500360E
S11300E800B5309AB5EF04CC0000A747DFF93620F5
S11300F8FE3020FEEF04CC0000A747DFF9410032B0
S11301082800EF08B311498200489AB5F643DFF492
S11301184100320000EF08B3114980004820FEF680
S113012843DFF4320000EF0FB3B3410011798000CC
S1130138CEFC00C361CAC2F643DFEDFCC10100F680
S1130148EFFED7E59AB561FCC1E602AAB5BFAAB528
S1130158F6081FACB5081FADB5BFACB5F6081FAEA1
S1130168B5081FAFB5BFAEB5F661D8A102B0B5BF2B
S1080178B0B5C061FCFC
S113017D16C80300AEF82761D339315E12F643DD9C
S113018D27BBBC02BC04BC06BC08BC0ABC0CBC0E20
S113019DBC10BC12BC14BC16BC18BC1ABC1CBC1EB6
S11301AD3704200037B3EFD6AEF847DD06F6BBA70C
S11301BDA7EFF5D7FE1E00F6C1C1C15064C1FEC93B
S11301CD021008FE2802F6C1C1C130E803C1FEB910
S11301DD021008EFEE341600717BFACA0000CA0152
S11301ED00CA0200CA0300CA0400CA0500CA0600F8
S11301FDCA0700CA0800FC030600FCD20500FC0671
S113020D0600FC770600F57800717AFAFCE4060026
S113021DEC6806002012F6BF86B5BF8AB55014BF30
S113022D88B5300AB5FE3503307A44C1F6C1F58C74
S113023DB5F58DB5307F43BF90B5F6BF8EB530178C
S113024D42BF94B530E17ABF92B530D93FBF98B56E
S113025D309A99BF96B5300044BF34B5F1BF32B56D
S113026DDBA8B5AFA6B5FC9E080014100430803A87
S113027DC1F6C115FCCE0900141004307F43C1F63C
S113028DC115FCCE0900BF46B513BF48B51004AF68
S113029D86B54288B561C8EE1D01AEF8040A00FEAC
S11302ADBB02A80A220AB514A80C083F0CB5083FD6
S11302BD0DB516A80E083F0EB5083F0FB5B800A82A
S11302CD1061D8B12210B5121742A4B51561F842C8
S11302DDA2B5E13C0075A80003E161F861D875652C
S11302EDD161E8EED100A28AB55119FE3F02F7FCA7
S11302FD7B0A00B808BF4AB513B806BF4CB5AF3476
S113030DB5C1AF32B5C1A80A12A80CFC600700B87C
S113031D0413B8061004C3A802C1FCCE09001410BE
S113032D0413BF3CB5C3C5A806BF30B5A804BF2E82
S113033DB515BF3AB5DB40B5AF3EB5FC6807001443
S113034D131004BF40B515BF3EB58F8DB598039FEF
S113035D8CB5AF9EB5F7FC7B0A00B80013B804C387
S113036DA802C1A80A12A80CFC700A009806100471
S113037DA804C1A802C1A80A12A80CFC6D0900109A
S113038D04708802D1E161F8F1D0E061F8F06160A8
S113039DE161E8F1739F8DB5AF8AB5440100DF06C5
S11303AD639F8CB5980388037063614061F8EEDE3A
S11303BDFEA286B5EED8FEAF8AB5F7FC7B0A00C364
S11303CDC1DB40B5AF3EB5FC9E08001004FC100C1B
S11303DD00C3C1DB48B5AF46B5FCCE0900BF42B57D
S11303ED13BF44B5F6BF40B5BF3EB51016D7200CAC
S11303FDF500B5300AB5FE6401D500B561E8EE83AC
S113040D005119FE2701BF9EB5F6C1C1C15005C1EA
S113041DFE770010083032FE029EB544660061D8A6
S113042DE500B5AEF8040400FE3201A804220AB5B5
S113043D12A806083F0CB5083F0DB516A808083FCD
S113044D0EB5083F0FB5B802A80A61D8B12210B590
S113045D14440000A80261F8440100F11C00980046
S113046D1742A4B51361F842A2B5E361F3F3A802F0
S113047D0561F8DE03880073D361E8EE7BFFE500C8
S113048DB5EE75FFFE8DFD100CD72004F6BF20B51B
S113049DBF1EB5BF1CB5BF1AB5BF28B5BF26B5BFA6
S11304AD24B5BF22B5301AB5FEB200EF5CAF22B54C
S11304BD221AB514AF24B5083F1CB5083F1DB5125B
S11304CDAF26B5083F1EB5083F1FB5B802AF28B516
S11304DD61D8B12220B5B800A80A3343A808121573
S11304ED61F843E13C0076A80E14A80045A80C124F
S11304FDA80261F843E13C0077A80045A80261F821
S113050D43DD02677666D1DF083022B5FE4E00EF7B
S113051D9CF6BF20B5BF1EB5BF1CB5BF1AB5BF280D
S113052DB5BF26B5BF24B5BF22B51004D7C79800F3
S113053DFC54060088009E31409AB501DF1AF59AE5
S113054DB5309CB5FC700600F6C1C1C15002C1FEA8
S113055D38FF1008FC5E0600AF9CB5C2D72004140A
S113056DAFB0B512BF08B5AFAEB516BF06B5AFACDB
S113057DB5B802BF04B5AFAAB5B800BF02B513BA7A
S113058D0617BA04A802BA02A800B91004D7341683
S113059D00CA0000CA0100CA0200CA0300CA04004E
S11305ADCA0500CA0600CA0700CA0800FC030600F3
S11305BDFCD20500FC060600FC770600F57800D792
S11305CD717BFAEFC936C40234C402718215A116C7
S11305DDCEA000717AA1714BA4CA030171A336C4D4
S11305ED02716AA1716BA4710BA1CA04808A046C97
S11305FD429A0471A3D78EA8D730100004E00016D8
S113060D34100071D2CE3000710AE7710BE3710A18
S113061DEF710AEB51186F23FF9E238A5C71DA9AEE
S113062D5C51206F2CFF9E2C8A5C718A9A5CE16F61
S113063D2CFF9E2CCE3000CE3200CA0000CA01FF22
S113064DCA0200CE3118D7710BE3710BE7717A3002
S113065DD7717B30710AE7710BE3D7710A30D7710B
S113066D0B30D714AD1E316EB9D734F00036F0000F
S113067DF67182BAC630FF0ABAC4F6BF2A02714AAD
S113068DE6714BE2715AE6715BE2713AE7713BE355
S113069D716AE6716BE2717AE6717BE2714AE77118
S11306AD4BE3717AE7717BE3710AD4710BD0711A44
S11306BDD4711BD0712AD4712BD0714AEE714AEAD0
S11306CDBAA0C918FF7CAAC8085CFE08BAC8AACA91
S11306DD085CFE08BACAD734B201714BE2714BE61D
S11306EDA9086C0108B9D734B401A9086C0108B97B
S10A06FD714AE6714BE2D7DC
S1130704F7F6D7C031730AA80405148806611215D4
S1130714D7D0DFECA8043525148806613215D760D8
S1130724616D616CC0DF06317A6158DD16F6B11271
S1130734D767D1DDCE86D0DF63A8066168DF5D614B
S1130744E8C2C015D74C19DEF8A8080876880AB898
S113075408C80A0051086123DD6AEF4D1488077C38
S113076480980715148807617BF0C1130116A80843
S11307740147DF08A8064561F8C8000161D30AA847
S11307840635B806A80833B80813014CFFDD907782
S1130794A80801D176DD9AE1317D980867612E5667
S11307A400DD22C3734C08DE9C880A311A980AA817
S11307B40861FB0861FB08B8086661FB61D8718AAB
S11307C47693DFE5C2C00151806162615BC1DC37AD
S11307D4A806051488086112DE1D62311A721561B7
S11307E4FB0861FB08146661FB61D8718A7687870C
S11307F461F8EC1F0B0097130167311E121735ECD7
S1130804370B00C0F7F6D7D0DFF9F1612E768806EE
S113081461348807613588086132623173D9176499
S113082433650897DD07311C61EE3175F6087401F0
S113083467311E3308618CEC370B00C0F6B112D754
S113084416A8066168616EDFF2130181DDED61F8BB
S1130854C0C2F2F6D716A8066168616EDD17C388B4
S11308640A72A808FC270B00B80813B80AC2673137
S11308748FC1EF3FC0130108616D616C61E8E161F0
S113088408DDB8EC1F0B0060616D616CDDC215FC02
S1130894270B001467318F16EF27148807617B5CDC
S11308A480C1A8080181DD9891DDAA76E1311EB8E2
S11308B40877C7130181DDBC91DDCC76E1311E12CA
S11308C47717C62716A8063525C1880A6132C0DE03
S11308D40B0161FE05C1880A6112C0B7C7318C726D
S11308E4318D16A80A37CEFB0B00C166736572A856
S11308F40C16A80A35318DCEFB0B00C166736572E4
S1130904A80E16A80C35318DCEFB0B00C2623561DE
S113091468616F6166C2C0047E00317324A144FF20
S11309240061C8EC1F0B006208311E121561FB083C
S113093461FB08DE0604010061D8A314C0616315D9
S1130944D744E8FF61D8EE08FF90660835E33331F5
S11309541E3361FB0861FB08618C61FB61D8718AF9
S1130964618C85DFE9EC370B00C3C1FC030B00D1B8
S1130974DD0AFCCB0A0061E3E161F3F11004D7C0A2
S1130984F6B112D716A8066168616EDFF213010886
S1130994616D616C61E8E16108DDE4EC1F0B001337
S11309A401D1DD0CA80635B806A80833B808EF242D
S11309B4C2F2F6D760616D616CDDF515FC270B009E
S11309C41467318F57000716EF29148807617B5C7D
S11309D480C1A8080181DDAC91DDC476E1311EB883
S11309E408130181DDA791DDCB6106F161DC77E1B8
S11309F4311E12C713880AD616A808CEFB01353354
S1130A040716C3A80CCEFB010514626116636117B3
S1130A14C2A808CEFB0133051461D8A7F64361E8E4
S1130A24E161641712C631730715011461FE61D8BC
S1130A34A717248000317317A144FF0061C8EC1F79
S1130A440B0063610108311E336508EC370B004465
S1130A54E8FF61D8EE59FF3533311E3361FB086179
S1130A64FB61D8718A0884DFEF35EFD6C3C1FC0378
S1130A740B0010047C01D75400EC4A0B00C1A810ED
S1130A84C1A810C1A80C14A80A12A804FCAF0B0036
S1130A94A81012A80EFC940B00FCB90A00A818B8FC
S1130AA402A816B800A80C12A80AFC940B00FCB9FE
S1130AB40A001006D714A80816AC0405BC04AC0636
S1130AC461D8A103BC06D7FBF8FFAC0E1271FCACD1
S1130AD40671FFDC1161490EAC0461F861490C8CA8
S1130AE40761E871FFD70161686E056E04311C610A
S1130AF46B616A6E0D6E0CD18C0761E871FCD731A1
S1130B041C83E3DD0ED3DD09A80E0112A80C83DDDA
S1130B1402E1D76168616ADDECF1D732807FC0619C
S1130B2463F6D757013308311C61DC973175F8310A
S1130B348E33D716311E641C7FDE06A7F64761F890
S1130B44A3C0616317D70361C8DD442333559E44AE
S1130B540000DF0651106125F13331730A95013128
S1130B641C61D8A13175F6618A4C80618ADC11DF7D
S1130B740633718C33DE0983DF0604010061D885F2
S1130B84618C718C63083561FB0871F9081215D7FF
S1130B94C1A806CEFB0114A80012A808CEFB0105C7
S1130BA414C2A804CEFB01330533D7C5C3C1A80AB4
S1130BB4FC0C0C00C6BB13BC02C7A80412A80AFC94
S1130BC40C0C00C6610902BC0261D8A313BC04C79F
S1130BD4A80212A80CFC0C0C00C6610902BC026138
S1130BE4D8A3AC0403BC04F661EEBC06C7A8041283
S1130BF4A80CFC0C0C00C6610904BC0461D8A31342
S10F0C04610906BC061004D7CEFB01D722
S1130C10C1200C14C3130480FF44007FDC68135C00
S1130C207F05DF06DC04A80EEF5913085C8008F783
S1130C3043DF32A80E12A800319D319E0361F8DE15
S1130C402430804BC1F6C1A80412A812FCCE0900BE
S1130C501004FEBBFF14308039C1F6C115FCCE0967
S1130C60001004EF1EA80044807FA80EDF02F743A3
S1130C70DF09E6A1BFC0B5C2C3EFABE6BFC0B53262
S1130C80C0FFB11010D715318E1413318D056C804F
S1130C90B806A800317EF1140482FFB80AF661C8D0
S1130CA0B1B80CA80E318DB808880A310521A80600
S1130CB031FD12A808311E03B808150483FF14F788
S1130CC061C8B3A806311EB80615B80A13B80C20BB
S1130CD008F6B80CC1C1A81222B2B514FE2B01B893
S1130CE00E16C7C2AFB4B5B81ACEFB02B80CC5C253
S1130CF0A81ACEFB01A80C03C7C216AFB6B5FE17DF
S1130D0001AFB8B5FE1101AFBAB5FE0B01AFBCB56A
S1130D102716CEFB02B81AFEF500B80CC5C217CED2
S1130D20FB01A81A14A80C050302BEB514F661D879
S1130D30A1161531FE1217010316C7C21501B80E0C
S1130D40CEFB0214A80E1217CEFB02B81AA80E127C
S1130D50CEFB01B80CA81A050314A81412A80C237E
S1130D60B81AA8121215FEA20023B80CA81A315EF4
S1130D7012A80E14A80C31BD0312A81A31BDCEFB63
S1130D800B00B80C31CE14314C130516A80C1231DB
S1130D904CF61423B80CA80EFE700027B81A12C320
S1130DA0A80E086C805C8008B810C1C5C5C3C1AE6C
S1130DB0F8041000FC810A001010C0C0C6C4A80CBE
S1130DC01231FCA80A311E03B800A806121543A864
S1130DD008121761F843DE03E6B804A80E318D1239
S1130DE0A80E318E16A802318E0312A804031461D2
S1130DF0D8A7A800047E0012317C175C01085C7F30
S1130E00616A08616B1215EE79FEF661D8B1D7C537
S1130E10C2FEF6FFCEFB02D72716CEFB02B81EFE9B
S1130E20EDFFB810C5C217CEFB01A81E16A8100707
S1090E300316A81212D7FC
S21403FE00FFFFFFFFFFFFFFFFFFFFFFFFFFFFFFFFFA
S21403FE10FFFFFFFFFFFFFFFFFFFFFFFFFFFFFFFFEA
S21403FE20FFFFFFFFFFFFFFFFFFFFFFFFFFFFFFFFDA
S21403FE30FFFFFFFFFFFFFFFFFFFFFFFFFFFFFFFFCA
S21403FE40FFFFFFFFFFFFFFFFFFFFFFFFFFFFFFFFBA
S21403FE50FFFFFFFFFFFFFFFFFFFFFFFFFFFFFFFFAA
S21403FE60FFFFFFFFFFFFFFFFFFFFFFFFFFFFFFFF9A
S21403FE70FFFFFFFFFFFFFFFFFFFFFFFFFFFFFFFF8A
S21403FE80FFFFFFFFFFFFFFFFFFFFFFFFFFFFFFFF7A
S21403FE90FFFFFFFFFFFFFFFFFFFFFFFFFFFFFFFF6A
S21403FEA0FFFFFFFFFFFFFFFFFFFFFFFFFFFFFFFF5A
S21403FEB0FFFFFFFFFFFFFFFFFFFFFFFFFFFFFFFF4A
S21403FEC0FFFFFFFFFFFFFFFFFFFFFFFFFFFFFFFF3A
S21403FED0FFFFFFFFFFFFFFFFFFFFFFFFFFFFFFFF2A
S21403FEE0FFFFFFFFFFFFFFFFFFFFFFFFFFFFFFFF1A
S21403FEF0FFFFFFFFFFFFFFFFFFFFFFFFFFFFFFFF0A
S21403FF00FFFFFFFFFFFFFFFFFFFFFFFFFFFFFFFFF9
S21403FF10FFFFFFFFFFFFFFFFFFFFFFFFFFFFFFFFE9
S21403FF20FFFFFFFFFFFFFFFFFFFFFFFFFFFFFFFFD9
S21403FF30FFFFFFFFFFFFFFFFFFFFFFFFFFFFFFFFC9
S21403FF40FFFFFFFFFFFFFFFFFFFFFFFFFFFFFFFFB9
S21403FF50FFFFFFFFFFFFFFFFFFFFFFFFFFFFFFFFA9
S21403FF60FFFFFFFFFFFFFFFFFFFFFFFFFFFFFFFF99
S21403FF70FFFFFFFFFFFFFFFFFFFFFFFFFFFFFFFF89
S21403FF80FFFFFFFFFFFFFFFFFFFFFFFFFFFFFFFF79
S21403FF90FFFFFFFFFFFFFFFFFFFFFFFFFFFFFFFF69
S21403FFA0FFFFFFFFFFFFFFFFFFFFFFFFFFFFFFFF59
S21403FFB0FFFFFFFFFFFFFFFFFFFFFFFFFFFFFFFF49
S21403FFC0FFFFFFFFFFFFFFFFFFFFFFFFFFFFFFFF39
S21403FFD0FFFFFFFFFFFFFFFFFFFFFFFFFFFFFFFF29
S21403FFE0FFFFFFFFFFFFFFFFFFFFFFFFFFFFFFFF19
S21403FFF0FFFFFFFFFFFFFFFFFFFFFFFFFFFFFFFF09
S9030000FC
